:020000004E2888
:0E0006008312031321088A00200882000800DC
:10001400831203138601850107309F00831685012F
:020024000800D2
:10002600831203132208013A031D1E2805148510A6
:100036000515851141282208023A031D27280510B7
:1000460085140511851541282208033A031D302819
:10005600051485100511851541282208043A031D4B
:100066003928051085140515851141282208053AF9
:0E007600031D41280510851005118511080095
:1000840003208A110A128000840AA00A0319A10A13
:08009400F003031D42280800DF
:10009C000A2001308312A20013200330FB008A30A7
:1000AC00FC005530FD00FD0B5928FC0B5928FB0BAF
:1000BC005928000000000430A20013208230FC00FC
:1000CC00DD30FD00FD0B6828FC0B682800000000EB
:1000DC000130A20013200330FB008A30FC005530A5
:1000EC00FD00FD0B7728FC0B7728FB0B7728000015
:1000FC0000000330A20013208230FC00DD30FD0034
:10010C00FD0B8628FC0B8628000000000230A200A4
:10011C0013200330FB008A30FC005530FD00FD0B32
:10012C009528FC0B9528FB0B95280000000005304A
:08013C00A20013204F28A128A6
:02400E00780038
:00000001FF
